:020000020000FC
:100000000FE50DBF04E00EBF00E008BB0BBB00E036
:100010000ABB0FE807BB0E940D0050E00E941400CD
:100020000E941F000C940D0009B301700130E1F72C
:100030000E94460009B301700130B1F7089500E055
:1000400008BB0E9446000E94460009B301700130BF
:1000500009F4C09A0E9446000E94460009B301704C
:10006000013009F4C19A0E9446000E94460009B37B
:100070000170013009F4C29A0E9446000E944600B5
:1000800009B30170013009F4C39A0895C79A02E0D8
:0E00900012E01A95F1F70A95D9F7C79808956E
:00000001FF
