:020000020000FC
:100000000C9404000C94270004E00EBF0FE50DBF14
:100010000E94DD000E94E7000E9476000E940F010E
:100020000E94C3000E941C010091600010916200B8
:10003000011759F40091610010916300011729F430
:1000400004E60E941B010E94E7000C940C0000E0F3
:1000500008BB109164000F93009164000395009316
:1000600064000F91143008F403C000E000936400B2
:10007000129514FB0EF002C0DC9A01C0DC9815FB4F
:100080000EF002C0DD9A01C0DD9816FB0EF002C032
:10009000DE9A01C0DE98129520E0309161001317BE
:1000A00009F009C030916000089400E033953A955A
:1000B000000FE9F7202B30916300131709F009C0F6
:1000C00030916200089400E033953A95000FE9F70B
:1000D000202B220F00916100000F08BB0F930091AD
:1000E0006A00039500936A000F91189500E007B924
:1000F00000E806B9369A3699FECF05B1003039F4DA
:100100000F93009160000A95009360000F910330F7
:1001100039F40F93009160000395009360000F91F4
:1001200001E007B900E806B9369A3699FECF05B165
:10013000003039F40F93009161000A95009361003B
:100140000F91033039F40F930091610003950093F0
:1001500061000F910E94AD0008950091600017E0CA
:100160000E94BC00009360000091610015E00E94B5
:10017000BC0000936100089500601AF0011711F4AB
:10018000025003950895FF27E0E60E94CC00FF2768
:10019000E2E60E94CC00089511910E94D6001081E1
:1001A000E5E6E10F1081102B1083089501E01A9508
:1001B0001AF006950C94D700089500EF0ABB0FEFD4
:1001C00007BB00E40BBF03E005BF7894089500E08F
:1001D0000093600002E0009361000F920F920E9472
:1001E000FA000F91009362000F91009363000E9448
:1001F0000F0108950EB7F02F0DB7E02F00916A00A0
:100200000770053008F004500395039503830091AF
:100210006A000770053008F004500483089500E078
:1002200000936500009366000093670000936800E8
:1002300000936900089508950F931F9301E41FE14F
:100240001A95F1F70A95D9F7C7981F910F9108955C
:00000001FF
