:020000020000FC
:1000000004E00EBF0FE50DBF01E007BB22C0416059
:10001000428843A844904540462847D04808492094
:100020004A784BB04C484DE04EA04FF0506851D844
:100030005250531054C0553056185770589859B8EC
:100040005AC80000204441544F5254454B4E494B2E
:1000500000000E942C00FDCF2FEF22BBE4E4F0E073
:1000600015911BBB103221F447E00E94660007C0C7
:100070000E9453000E94420042E00E94660010303D
:1000800079F7089560E070E0220F671F203009F4CF
:10009000089541E000E0601343E00E945F0041E00A
:1000A0000E946600EFCFEF93FF93EEE0F0E0359112
:1000B00031173591E1F7232FFF91EF91089501E07A
:1000C00008BB0E946B0000E008BB089500E008BB7D
:1000D0000E946B0008950E9470004A95E1F7089510
:1000E0001F93C79A0AE01FE11A95F1F70A95D9F70D
:0600F000C7981F9108955E
:00000001FF
